:100000000C942A000C9447000C9447000C94470071
:100010000C9447000C9447000C9447000C94470044
:100020000C9447000C9447000C9447000C945D031B
:100030000C9447000C9447000C9447000C94470024
:100040000C9447000C9447000C9447000C94470014
:100050000C94470011241FBECFE5D8E0DEBFCDBF12
:1000600010E0A0E6B0E0ECE6F9E002C005900D92E9
:10007000A636B107D9F720E0A6E6B0E001C01D9290
:10008000A63FB207E1F70E9481030C94B4040C94DC
:10009000000014BA8FE085BB089580EB87BB80E534
:1000A0008DB9089598B39F7E98BB8FB9779BFECF8B
:1000B0006FB9779BFECF88B3806188BB089560E0FD
:1000C00089E00E9452006FE08AE00E94520067E0DF
:1000D0008BE00E94520061E08CE00E945200089583
:1000E00089B7816089BF83E083BF089533B381E01E
:1000F0003827317080916A0090E0880F991F382B63
:1001000030936A0083B390E08095909586958170D6
:100110004091680050E0440F551F242F282B209356
:10012000680083B390E08095909582FB992790F9C1
:100130004091690050E0440F551F842F892B809314
:10014000690043B350E04095509543FB992790F9DF
:100150004091670050E0440F551F492B40936700C2
:100160003F3F19F41092660008958F3F21F481E01B
:100170008093660008952F3F21F482E0809366000B
:1001800008954F3F19F483E08093660008950E941C
:10019000280487709078992324F40197886F9F6FC3
:1001A000019680936B000E942804877090789923B1
:1001B00024F40197886F9F6F019680936C001092D2
:1001C000F5000895CF9380E090E00E943804C1E0EC
:1001D000C80F6C2F80E090E00E9440048C2FCF91DC
:1001E00008950E94280487709078992324F4019739
:1001F000886F9F6F01968093EB000E9428048770A0
:100200009078992324F40197886F9F6F0196582F57
:100210008093EC0080E015C04091EB00282F30E087
:10022000F901EE0FFF1FE559FF4F9081491308C0F8
:10023000220F331FF901E559FF4F9181591739F00A
:100240008F5F90916400891738F380E001C081E0EE
:100250008111C7CF0895CF9380E006C0E82FF0E06A
:10026000E351FF4F10828F5F8830C0F360E031C0F0
:10027000262F30E0F901EE0FFF1FE559FF4F818176
:1002800090E0019787709078992324F40197886F04
:100290009F6F0196089687709078992324F40197B0
:1002A000886F9F6F019641E050E0FA0102C0EE0FA7
:1002B000FF1F8A95E2F7CF01220F331FF901E5599D
:1002C000FF4FE081F0E0E351FF4F9081892B808365
:1002D0006F5F80916400681758F28091EC0090E0A5
:1002E000019787709078992324F40197886F9F6F06
:1002F0000196089687709078992324F40197886F67
:100300009F6F019621E030E0A90102C0440F551F04
:100310008A95E2F7CA01E091EB00F0E0E351FF4F6C
:100320009081892B8083C1E009C0EC2FF0E0E4517B
:10033000FF4F60818C2F0E945200CF5FC930A8F31D
:10034000CF91089507C08FE99FE00197F1F700C0B2
:100350000000C9019C0121503109892BA1F70895A2
:100360008091F500813089F138F0823009F456C06F
:10037000833009F47CC0A4C09091EB0080916B00A5
:1003800098131DC02091EC0030E080916C0090E04B
:10039000019687709078992324F40197886F9F6F56
:1003A0000196089687709078992324F40197886FB6
:1003B0009F6F01962817390721F491E003C090E060
:1003C00001C090E0892F817008959091EB00809199
:1003D0006B0098131DC02091EC0030E080916C0000
:1003E00090E0019787709078992324F40197886FA3
:1003F0009F6F0196089687709078992324F401974F
:10040000886F9F6F01962817390721F491E003C088
:1004100090E001C090E0892F817008952091EB0059
:1004200030E080916B0090E001978770907899237D
:1004300024F40197886F9F6F0196089687709078D3
:10044000992324F40197886F9F6F01962817390725
:1004500041F49091EC0080916C00981721F090E0AD
:1004600003C090E001C091E0892F81700895209130
:10047000EB0030E080916B0090E0019687709078FF
:10048000992324F40197886F9F6F019608968770CF
:100490009078992324F40197886F9F6F019628170D
:1004A000390741F49091EC0080916C00981721F08D
:1004B00090E003C090E001C091E0892F8170089521
:1004C00080E0089580916400815012C0E82FF0E030
:1004D000DF011197AA0FBB1FA559BF4F9C91EE0FCB
:1004E000FF1FE559FF4F908311969C919183815096
:1004F0008111ECCF8091F5008130F9F030F082303D
:10050000A1F1833009F449C0089580916C0090E016
:10051000019687709078992324F40197886F9F6FD4
:100520000196089687709078992324F40197886F34
:100530009F6F019680936C00089580916C0090E00D
:10054000019787709078992324F40197886F9F6FA3
:100550000196089687709078992324F40197886F04
:100560009F6F019680936C00089580916B0090E0DE
:10057000019787709078992324F40197886F9F6F73
:100580000196089687709078992324F40197886FD4
:100590009F6F019680936B00089580916B0090E0AF
:1005A000019687709078992324F40197886F9F6F44
:1005B0000196089687709078992324F40197886FA4
:1005C0009F6F019680936B000895509164005530A1
:1005D000E8F084E017C040916B00282F30E0F9016B
:1005E000EE0FFF1FE559FF4F908149130AC040915C
:1005F0006C00220F331FF901E559FF4F9181491714
:1006000039F08F5F851738F380E0089580E0089512
:1006100081E0089561E081E00E94520062E082E0A2
:100620000E94520064E783E00E94520064E084E08C
:100630000E94520064E085E00E94520064E786E078
:100640000E94520062E087E00E94520061E088E070
:100650000E9452002FEF83ED90E3215080409040A4
:10066000E1F700C0000061E081E00E94520062E218
:1006700082E00E94520064E283E00E94520064E241
:1006800084E00E94520064E285E00E94520064E22D
:1006900086E00E94520062E287E00E94520061E020
:1006A00088E00E9452002FEF83ED90E321508040BC
:1006B0009040E1F700C0000008951F920F920FB61E
:1006C0000F9211242F933F934F935F936F937F93D8
:1006D0008F939F93AF93BF93EF93FF930E94760006
:1006E000FF91EF91BF91AF919F918F917F916F910A
:1006F0005F914F913F912F910F900FBE0F901F90E0
:1007000018950E9449000E944D000E945F000E94BF
:1007100070000E94C7000E94E20090E00E942D0439
:100720000E94F10078940AE812E0C0E03FC00E9405
:100730002B01C8010E94A2019091F50080916600F2
:10074000981791F0911102C0813071F0933011F43B
:10075000823051F0913011F4882331F0923011F44D
:10076000833011F08093F5000E94B001882361F07E
:100770000A501109809164008F5F809364000E9489
:1007800062020E94F10002C00E9462020E94E50221
:10079000C82F882359F00E942B012FEF83ED90E39F
:1007A000215080409040E1F700C00000CC2309F4C4
:1007B000BECF0E940A03FDCF8F929F92AF92BF924D
:1007C000CF92DF92EF92FF92CF93DF93EC0168819B
:1007D00079818A819B81611571058105910521F4DB
:1007E00064E279ED8BE597E02DE133EF41E050E0F5
:1007F0000E94510449015A019B01AC01A7EAB1E4EE
:100800000E9470046B017C01ACEEB4EFA501940171
:100810000E947E04DC01CB018C0D9D1DAE1DBF1D11
:10082000B7FF03C00197A109B04888839983AA83C1
:10083000BB839F77DF91CF91FF90EF90DF90CF90B8
:10084000BF90AF909F908F9008950E94DC03089511
:1008500080E690E00E94DC030895A0E0B0E0809381
:10086000600090936100A0936200B09363000895CC
:10087000E199FECF9FBB8EBBE09A99278DB3089577
:10088000262FE199FECF9FBB8EBBE09A01970DB258
:10089000021631F02DBB0FB6F894E29AE19A0FBE22
:1008A0000895052E97FB1EF400940E94680457FDDE
:1008B00007D00E94830407FC03D04EF40C94680414
:1008C00050954095309521953F4F4F4F5F4F08957C
:1008D00090958095709561957F4F8F4F9F4F0895AC
:1008E0000E94A504A59F900DB49F900DA49F800D1C
:1008F000911D11240895B7FF0C9470040E94700498
:10090000821B930B0895A1E21A2EAA1BBB1BFD01AB
:100910000DC0AA1FBB1FEE1FFF1FA217B307E407DE
:10092000F50720F0A21BB30BE40BF50B661F771F36
:10093000881F991F1A9469F7609570958095909516
:100940009B01AC01BD01CF010895A29FB001B39FEF
:10095000C001A39F700D811D1124911DB29F700DC8
:0C096000811D1124911D0895F894FFCF13
:06096C0001000000010083
:00000001FF
